:20000000D43F0020118A000001CA011001CA011001CA011001CA011001CA011001CA0110EA
:1C00200001CA011001CA011001CA011001CA011001CA011001CA01103FCA011082
:20003C000EB58DF8000041E027480078012809D007F0E2FE254806F0AFF92548254908F09D
:20005C005BFB3FE008F05EFD09F0E2FE2248007802281AD009F0F0FE00208DF804009DF8C8
:20007C00040006280DDA9DF804001C4A002111549DF80400401C8DF804009DF80400062881
:20009C00F1DB002002F0F2FD03E01348007802F0EDFD13480AF0D6FE0D480AF0D3FE11E0AB
:2000BC000A2009F07BFF08F08FFF0BE09DF8000040B1401E06D0401EB6D0401E02D0401EEA
:2000DC00EED0FFE70EBDC0461B320020805101005C2D002080EE3600143200203830002015
:0400FC007C2E002036
:200100003C000000000000000000000034010000000000000000000001000000000000006D
:1C01200000000000000000000000000001000000000000000800000000000000BA
:20013C00340000000000000000000000680100000000000000000000010000000000000005
:14015C00010000000000000000000000080000000000000086
:2001700030000000000000000000000098010000040000000000000001000000FFFFFFFFA5
:10019000FF00000001000000080000000000000057
:2001A0002C0000000000000000000000C4010000040000000000000001000000FFFFFFFF4D
:0C01C000FFFFFFFF08000000000000002F
:2001CC0034050000E401000099A1011095A70110A5C2011009B2011045B80110000000000B
:0801EC00000000002E000000DD
:2001F400280000000000000000000000140200000000000000000000FFFFFFFF00000000B1
:080214000800000000000000DA
:20021C00300500003002000069C201106DC101101FC2011095BA011000000000000000008E
:04023C00300000008E
:20024000300500005402000075C20110A9B601109DBF011049B601100000000000000000DE
:040260003100000069
:200264002400000000000000000000008002000000000000000000000000000008000000CC
:040284000000000076
:20028800240000000000000000000000A40200000000000000000000000000000800000084
:0402A8000000000052
:2002AC00240000000000000000000000C8020000000000000100000000000000080000003B
:0402CC00000000002E
:2002D00000000000CC3000200400000000000000000000002000000070010000300000002D
:2002F0001C020000E03000200400000000000000000000000C000000300400001800000044
:2003100040020000EC300020040000000000000000000000240000004804000018000000C3
:2003300000000000F430002004000000000000000000000010000000A00100002C00000088
:20035000CC010000FC300020040000000000000000000000200000006402000024000000C6
:20037000FFFFFFFF1C3100200400000000000000000000002800000088020000240000002A
:20039000FFFFFFFF2C310020040000000000000000000000580000003C0100003400000007
:2003B000FFFFFFFF343100200400000000000000000000001000000060040000180000001C
:2003D000FFFFFFFF3C3100200400000000000000000000001C000000AC0200002400000092
:2003F000FFFFFFFF4431002004000000000000000000000038000000F40100002800000003
:20041000FFFFFFFF4C31002004000000000000000000000054000000000100003C0000009E
:1804300018000000000000000000000040040000080000000000000050
:1804480018000000000000000000000058040000080000000000000020
:18046000180000000000000000000000700400000800000000000000F0
:0804780001000000ACB6000019
:0404800000207047A1
:040484000100000073
:0404880000000C0064
:04048C0000000D005F
:040490003200000036
:040494000200000062
:0404980054350020B7
:04049C00000200005A
:0404A0000000000058
:0404A40001CA011078
:0404A8000000000050
:0404AC00000000004C
:0404B0000800000040
:0404B4000000200024
:0404B800E834002004
:0404BC00010000003B
:0404C00004310020E3
:0404C400080000002C
:0404C8000000000030
:0404CC00000000002C
:0404D0000000000028
:0404D4000000000024
:0404D8000000000020
:0404DC00010000001B
:0404E000B43500200F
:0404E400060000000E
:0404E800010000000F
:0404EC005034002068
:0404F0000000000008
:0404F4000000000004
:0404F80000020000FE
:0404FC0000000000FC
:02050000704742
:020502002A00CD
:020504000100F4
:020506002500CE
:020508003000C1
:02050A003100BE
:02050C002E00BF
:02050E000100EA
:0105100001E9
:08051400030000006CB60000BA
:08051C000000000000000000D7
:0405240000000100D2
:0405280000000300CC
:04052C0087C401106F
:04053000380500008A
:040534003805000086
:0405380000000000BF
:04053C00800000003B
:040540008000000037
:0405440000000000B3
:04054800043100205A
:04054C0053AF0000A9
:040550002000000087
:0405540028B60000C5
:0405580034B50000B6
:04055C000DC30110BA
:040560003F5E0000FA
:04056400675F0000CD
:0405680099C801101D
:04056C009BC8011017
:040570000000000087
:04057400B0B600001D
:04057800B0B400001B
:04057C00C8B40000FF
:0405800098B400002B
:0205840008006D
:0205860009006A
:02058800010070
:02058A0000006F
:01058C00016D
:040590000000000067
:040594000000000063
:04059800000000005F
:04059C00000000005B
:0405A0006DAA000040
:0405A400AD8E000018
:0405A8001D9F000093
:0405AC00658B00005B
:0405B0006D75000065
:0405B4007D95000031
:0405B8002D620000B0
:0405BC002DA5000069
:0405C000AD78000012
:0405C40011C8011049
:0405C80021C8011035
:0405CC000800000023
:0405D0002400000003
:0405D400180000000B
:0405D80028000000F7
:0405DC0020000000FB
:0405E0003C000000DB
:0405E4000C00000007
:0405E80034000000DB
:2005EC002DE9F04F064640F29421012541F22D00ADF10C0DC4F22231C4F2090040F81D5CB1
:20060C0008680028FCD043F6AC7E46F2440AC020C5F2000EC4F20C0AF4464AF8440CDEF86E
:20062C000890DCF8041046F25620C4F20800890807D271460A686FF00F0E4EEA12410170B7
:20064C0001E07221017041F28C38C5F2000858F8D41CC1F304611629A8BF203962469268F9
:20066C0012175118491C11F10A0FB8BF6FF0090100232C4625EAD96201F01F01C4F2203383
:20068C0041F4F851018324EA996E1A60002EC3F808E073D058F83C1CC1F38360C1F38F2700
:2006AC005FEA994167D249F3072CBCF1000F29D549F307214A42B1F1FF3F4FEA620215DA4D
:2006CC007F0805D1400806BF281C2F1C4FF6FF777F080CF1010C05D1400806BF281C2F1C57
:2006EC004FF6FF77521E0CF1010CE9D1490809D37F0805D1400806BF281C2F1C4FF6FF771E
:20070C000CF1010CBCF1000F35DDBCF1020F4FEA6C020CF001031DDB4FF6FF717F0047F02D
:20072C000107B94207D2400040F001000F2892BF2F1C0F200F1C7F0047F00107B94207D2A1
:20074C00400040F001000F2892BF2F1C0F200F1C521EE3D1002B0EDD7F004FF6FF7147F04A
:20076C000107B94207D2400040F001000F2892BF2F1C0F200F1C47EA004703E040F6FF77EC
:20078C00C0F20F070AF0C1FC39460022002808BF2A1C48F20007C4F20C0738680028FCD05A
:2007AC004AF20800C4F20C0001613D600AB10AF0B2FC002E08BFD82109D058F83C1C58F806
:2007CC003C0CC1F3870100F0030041EA002188B2009040F2FF3200232C214AF20000C4F2BB
:2007EC000C0007F0E9F9002E1ABF58F8100CC0F30D0B40F2FF3B0AF088FC0021002808BFD0
:20080C00291C38680028FCD04AF20800C4F20C00C0F814B03D6009B10AF07DFC002E04BFB6
:20082C004FF0000BC6F6880B0DD058F818BC0BF07C420BF47C010BF47C4011430BF0FC0BCC
:20084C0008434BEA000B0AF060FC0021002808BF291C38680028FCD04AF20800C4F20C00BC
:20086C00C0F80CB03D6009B10AF055FC002E04BF47F28A6BC0F2680B0DD058F81CBC0BF40E
:20088C007C020BF47C410BF4707011430BF03F0B08434BEA000B0AF038FC0021002808BFD1
:2008AC00291C38680028FCD04AF20800C4F20C00C0F808B03D6009B10AF02DFC002E3AD02B
:2008CC0058F8140C43F6AC71C5F200014B68C0F303525B08C0F3034117D243F6AC73C5F281
:2008EC0000031B6843F3032C12EB0C0203D4102A02DB0F2200E0002243F30333C91803D4B1
:20090C00102902DB0F2100E0002141EA021100F47F4200F0F00E0B0400F00F0B222E42EA0E
:20092C0003024EEA02014BEA010B08D300F0804040EA0B0B03E043F6277BC0F2710B0AF079
:20094C00E4FB0021002808BF291C38680028FCD04AF20800C4F20C00C0F804B03D6009B1FA
:20096C000AF0D9FB222E26BFD8F80000C0F30070281C4AF2400BC4F20C0B222E4FEA400014
:20098C0040F020008BF8090126BFD8F80000C0F34070281C202E40F010008BF809013CBFFC
:2009AC00002001900CD3D8F80C00C20C02F44072800D00F01C0100F003001143084301908C
:2009CC000AF0A3FB019A0021002808BF291C38680028FCD04AF20800C4F20C0002623D60E8
:2009EC0009B10AF098FB202E26BFD8F80C00C0F301500020222E4FEA400040F060008BF895
:200A0C000C0126BFD8F80000C0F3C06100216FF07F00222E40EAC1008BF8010126BFD8F8C0
:200A2C000000C0F3455100214FF60040202ECFF6FF7040EA8100ABF89C0105D248F200003D
:200A4C00C4F23F0001900BE0D8F80C000003820D00F47C11920500F47040114308430190BF
:200A6C000AF053FB019A0021002808BF291C38680028FCD04AF20800C4F20C0002603D6099
:200A8C0009B10AF048FB44204FF0880E8BF8C500002E8BF8C7E01ABFD8F80000C0F3C1411C
:200AAC00002140F68406C9F3815041F03001C4F28C3600288BF8C81041D0401E07D0401EBB
:200ACC0037D00420022107F0F2F900214BE0284609F059FA04460420214607F0E8F9042003
:200AEC0009F051FA8442FAD143F6AC70C5F2000050F8040C0104090C4AF8081CC0F3074E29
:200B0C004AF804ECCAF8005031680029FCD0002240F2B411CAF80020C1F2000109680B6864
:200B2C00000E4FF06022072198474FF48060CBF800000420032107F0BAF9002113E00420C3
:200B4C00294607F0B4F943F2BD704AF8080C4FF086094AF8049CCAF8005030680028FCD070
:200B6C000021CAF8001058F8200C4BF2700342F22C0E41F22D0C47F6180240F29449C4F254
:200B8C000C0300F03F00C4F2090E8BF8CB0FC4F2090C1A80DEF800004AF8441CC4F26029C5
:200BAC004CF81D1C03B0C9F80050BDE8F08F704700B5ADF1140D01928DF80210ADF80000CA
:200BCC0000208DF8080031E29DF80200102805D10199AD48102204F065FF73E218208DF879
:200BEC0008006FE29DF80200102805D10199A948102204F057FF65E218208DF8080061E295
:200C0C009DF80200042804D10198AC490068086058E218208DF8080054E29DF802000128DD
:200C2C003ED1A7480078012836D0A64800788DF80C000198A349007808709DF80C0080B1C5
:200C4C00A048007868B9AD480078022804D0AB480078052840F03682A948007809F07EFD3F
:200C6C0030E29DF80C00002840F02C8295480078002800F02782A1480078012808D09F4850
:200C8C000078042804D09D480078052840F01A82012009F0E1FB15E212208DF8080011E2DB
:200CAC0018208DF808000DE29DF80200012846D18448007801283ED0814800788DF80C0050
:200CCC0001987F49007808709DF80C00A0B17C48007888B989480078032808D087480078B5
:200CEC00072804D085480078052840F0EB818448007809F033FDE5E19DF80C00002840F0AB
:200D0C00E1816F480078002800F0DC817B48007801280CD079480078042808D0774800780D
:200D2C00062804D075480078052840F0CB81012009F092FBC6E112208DF80800C2E11820DF
:200D4C008DF80800BEE19DF80200022804D10198B54900880880B5E118208DF80800B1E131
:200D6C009DF802001F2819DCB54800211F2205F016FC01999DF80220B14804F093FE9DF8CA
:200D8C000200B04908705E48AE49AD4B00780A78012105F08FFF8DF8080093E118208DF8E2
:200DAC0008008FE19DF802001F2819DCA64800211F2205F0F4FB01999DF80220A24804F079
:200DCC0071FE9DF80200BE4908704D48BC499E4B00780A78002105F06DFF8DF8080071E1A4
:200DEC0018208DF808006DE19DF80200012808D101980078042804DC0198B4490078087098
:200E0C0060E118208DF808005CE19DF80200012808D101980078032804DC0198AC490078C8
:200E2C0008704FE118208DF808004BE19DF80200062806D10198A74902680A608088888004
:200E4C0040E118208DF808003CE19DF80200012808D101980078072804DC01989E490078D2
:200E6C0008702FE118208DF808002BE19DF8020001280BD101980078032807DC01989749D9
:200E8C00007808701EE1C046C82F002018208DF8080017E1D82F00209DF80200012808D1BD
:200EAC0001980078012804DC01988D490078087008E118208DF8080004E1C046583000206C
:200ECC00133300201233002001980088ADF80C009DF8020002280DD1BDF80C00062809DBF7
:200EEC00BDF80C00B0F5486F04DCBDF80C007D490880E7E018208DF80800E3E098300020A3
:200F0C008C30002001980088ADF80C009DF8020002280DD1BDF80C00062809DBBDF80C00E4
:200F2C00B0F5486F04DCBDF80C006F490880C9E018208DF80800C5E001980088ADF80C0083
:200F4C009DF80200022809D1BDF80C00B0F5FA7F04DABDF80C0065490880B3E018208DF8E6
:200F6C000800AFE001980088ADF80C009DF8020002280DD1BDF80C000A2809DBBDF80C00C5
:200F8C00B0F5486F04DCBDF80C005949088099E018208DF8080095E0019800788DF80C00C9
:200FAC009DF80200012818D19DF80C00012814D1504809F00BFC60B9002003F0D3FD8DF8B4
:200FCC0008009DF8080000287CD14B4809F042FF78E016208DF8080074E018208DF80800EA
:200FEC0070E09DF80200012804D1019843490078087067E018208DF8080063E0BDF80000E7
:20100C0027280CDA9DF80200022808D10199BDF80000098807F0C4FA8DF8080052E002207F
:20102C008DF808004EE0C04614330020BDF80000A0F201301A2809D9B0F58070D1D0DDE7E6
:20104C0017330020163300203733002001A151F820008746D50B0000F10B00000D0C00005A
:20106C0009100000270C0000530D00006D0D0000B10D0000F50D0000170E0000390E000012
:20108C00570E0000790E00000910000009100000A50E0000D50E0000110F0000450F00001C
:2010AC00710F000009100000091000000910000009100000A50F000009100000B50C0000B2
:2010CC00363300209DF8080005B000BD953000209430002056330020933000209630002031
:2010EC006433002066330020683300206A3300206C330020582E0020342E00208033002042
:20110C0000B5ADF1140D009000208DF8040000208DF8050087E100980290029840788DF803
:20112C000C009DF80C00E8B99D4A0220102106F0D9FF9C4A0320102106F0D4FF02989A49CD
:20114C00C01C02680A608088888098490120087097489849984B00780A78012105F0AAFDEE
:20116C008DF80C009DF80C0010B190490820087001208DF8040001208DF8050078E10098B1
:20118C00029002984078002824D10298C07850B1A9498748A94B0A780078002105F08AFD23
:2011AC000299487016E081480078022812D07F48007807280ED07D480078062803D1AA4810
:2011CC000078012806D1A94809F000FB10B9012009F042F902984078002800F04981734998
:2011EC000820087001208DF8040041E1009802900298407800283CD100988078032812D128
:20120C006A480078062803D168490720087033E0AA48007818B16549022008702CE0634900
:20122C000320087028E0A648008858B1A348007810B98D48007880B1A14801888B4807F09A
:20124C0063FA0AE09D480078012803D19B490020087002E0844900200870544800780728DB
:20126C0003D152490620087006E050490420087002E04E490820087001208DF80400002057
:20128C008DF80500F4E00098029002984078002838D102988B49001D02680A6080888880C8
:2012AC00029889494089088040490620087002988649C089088002988549008A08800298F0
:2012CC008449408A088002988349C07808708348007801280CD11F2007F03EF9ADF80C0066
:2012EC00BDF80C004FF47A7141437D4807F00CFA0298029A0299C07852890423091D06F086
:20130C000FF80DE002984078312806D16B490020087026490420087002E024490820087005
:20132C0001208DF80400A3E0009802900298808808F0A5F963480021062205F030F9634954
:20134C00002008806249002008806249002008800298644980790870614809F07BFD6248B7
:20136C0009F078FD01208DF8040057494FF6FF7008803D48007818B10C490320087077E060
:20138C0002988079082803D108490520087002E0064904200870012009F05EF868E0C04631
:2013AC00C82F0020D82F002028300020983000208C300020163300201733002000980290AA
:2013CC00494809F047FD02984078002850D102983E49C088088002983D49008908800298DC
:2013EC003C49408908803E4809F0F0F900283FD13E48006800283BD03C4835490068354A61
:20140C0003680988314812880088984730E00098029002988088052108F05EFF28E00120CA
:20142C008DF8050024E000988078072808D90D38F5D0801EEBD01BE0363300203733002001
:20144C0001A151F820008746231100002B1400008B110000F9110000F911000093120000E0
:20146C0035130000C913000013330020102E00209DF8040001280CD11D48006848B11C48AF
:20148C000068006828B11A48006801681948007888479DF8050001280CD11548006848B15E
:2014AC0013480068406828B11148006841680098884700E0012005B000BDC046123300202D
:2014CC00143300205E3300205C3300206E3300207033002072330020743300206433002072
:2014EC00342E002075330020582E00207C33002078330020983000202DE9F84FC64DC74EE9
:20150C00D5F8EF1FCC4C7368D5F8F30F8843C5F8F30F002BC5F8FF1F00F011817788012BE5
:20152C0000F0D680DFF8FCB2BF4FDFF800A3DFF80093DFF80083022B72D0032B40F06A81D0
:20154C000024B06855F8312C74600028A2F5C062B8BF404211460029B8BF494288422EDA97
:20156C00111C54BF02206FF00100B26900EB4100032190FBF1F18918B161F3687069984204
:20158C000BD0B1F11002B8BF524230691038B8BF40428242B8BF88B209DB98B20090A048B0
:2015AC0030214FF47F42082306F006FB308A00909B4804214FF4F802122306F0FDFA584659
:2015CC00046001688908FCD20460012644600E203E6003F095F950460468EFF3118584F366
:2015EC00118849460820B0FA80F00A1AD07F431E0128D37704D14246106820F008001060D1
:20160C0085F31188EFF3118384F311880420B0FA80F0091AC87F421E0128CA7754D14EE062
:20162C0055F8310CB0F5C06F17D00327776002F04DFC45F8397C0027276020688008FCD29F
:20164C007748394660220523009106F0B5FA0126266020688008FCD364E000217160584600
:20166C00016002689208FCD20160012641600E203E6003F045F950460468EFF3118584F314
:20168C00118849460820B0FA80F00A1AD07F431E0128D37704D14246106820F00800106030
:2016AC0085F31188EFF3118384F311880420B0FA80F0091AC87F421E0128CA7704D14246B8
:2016CC00106820F00400106083F31188BDE8F88F55F8312C02214BF2F52071605043000A3A
:2016EC0037B95649096821F07F414018400801E0002171806060000CA0600126E660032717
:20170C0045F8397C0027276020688008FCD24448394660220523009106F04EFA26602068AD
:20172C008008FCD345F8216C45F8397C0820C5F8FF0FC5F8F30F45F8396CBDE8F88F404842
:20174C000068006801462020884741F61D574FF002080F2045F82D0C00214FF4C0720723FE
:20176C0045F8297C2E48CDF8008006F025FA012744F8047C54F8040C8008FBD3308845F820
:20178C001D7C012821D0032045F8390C4FF00009C4F8009020688008FCD2214849466022F9
:2017AC000523009106F008FA276020688008FCD345F8217C45F8399C0820C5F8FF0FC5F86A
:2017CC00F30F45F8397C474623E04FF00009C4F80C90032045F8390CC4F8009020688008D8
:2017EC00FCD20F48CDF8008049466022052306F0E3F9276020688008FCD3202045F8210C58
:20180C0045F8399C0824C5F8FF4FC5F8F34F45F8397C7760BDE8F88F39400C403036002034
:20182C0000A00C4034600C4004800C40A4B60000B33000208433002038600C40102009406F
:20184C00A001001000B5ADF11C0D04F01DFFB748B74902F0B1F9B4490860B64809F060F8F0
:20186C00B548B64907F034FDB64809F0DBFAB44908600020B549009004200190B24841F277
:20188C008832002305F0DCFD0020B049009080200190AF480A22002305F0D2FD0020AB4999
:2018AC0000904FF480700190AA484EF66022002305F0C6FD0020A549A84A00904FF4806082
:2018CC000190A548002305F0BBFD00209F49A54A00904FF400600190A148002305F0B0FD45
:2018EC0000209A4900904FF4805001909E4840F2ED32002305F0A4FD05F024F89B4A80201F
:20190C00012106F0C7FB99499948097801701F200A2106F045FE00208DF80C000020ADF813
:20192C000E0001208DF810004FF44870ADF812004FF44870ADF814000020ADF81600D220A4
:20194C00ADF81800012103AA40F20530FFF730F940F2063002210DF10E02FFF729F9854AE9
:20196C004FF442700421FFF723F9834A40F207301F21FFF71DF94FF44470012104AAFFF7F0
:20198C0017F940F2113002210DF11202FFF710F940F21230022105AAFFF70AF940F21330D0
:2019AC0002210DF11602FFF703F94FF44570022106AAFFF7FDF8714A0020152107F0ACFF87
:2019CC004FF4CA60ADF80C00BDF80C10062006F0E7FDBDF80C10072006F0E2FDBDF80C106E
:2019EC00082006F0DDFDBDF80C10092006F0D8FDBDF80C100A2006F0D3FDBDF80C100B2061
:201A0C0006F0CEFD0020039001208DF8100001208DF8110000208DF8120001208DF8130069
:201A2C00042103AA4FF4816006F094FA4FF48060012104AA06F08EFA40F2024001210DF11B
:201A4C00110206F087FA40F2034001210DF1120206F080FA40F2064001210DF1130206F034
:201A6C0079FA07F035F8002007F0D4FD07F0BEFE09F063FB09F0B3FB4FF0FF3009F080FA49
:201A8C004FF0FF3009F00CFB4FF0FF3005F098FD01208DF80C00012103AA002004F0B8FD8A
:201AAC001E208DF80800012102AA40F20140FFF77FF8022040F2E24106F072FD032040F270
:201ACC00E24106F06DFD10204FF4A07106F068FD12204FF4A07106F063FD11204FF4A07137
:201AEC0006F05EFD13204FF4A07106F059FD2320002106F055FD224808F0CEFB214807F07F
:201B0C00F3FE8DF80900204807F0D5FE0A48007809F024F90848007809F02AF9072008F025
:201B2C00EBFB07B000BDC0465C300020043000205C320020803200208E300020803000200B
:201B4C0050300020F82F0020C82D0020C5A20000802D0020382D00207C2E0020005C260573
:201B6C005C2D002080EE3600EC2D00206D320020283200203B3200201C3200203F3200200E
:201B8C008C32002078320020843200202DE9F04F5FEA0009ADF11C0D00F05581AC4800682B
:201BAC00EFF3118280F31188DFF8C8B29BF80400012818BF012003D1022100208BF80410E1
:201BCC0082F31188012800F03C8109F0B9FB0390A948046804EB0B0009F0AEFB4FF0000895
:201BEC00464637460BEB0401CDF810800191B0B90C46084609F09CFB0546A868400808D3D7
:201C0C00E8682969024601209047C0B2002840F01081284609F088FB0546AC42EDD1002F2B
:201C2C0040F00B8109F07CFB0290059789480760012008F0A8F9012804D1404607F0F0F8E9
:201C4C004FF00108844F38688068014630468847864819300090D0F8FF0FB9F1000F00F023
:201C6C008C80864C0A34E57905B10126A5790DB146F0020665790DB146F00406DFF8DC91C7
:201C8C0065782DB1B86A006B49460246C88D904725782DB1B86A006B49460246488D904762
:201CAC006F4901200860B86A8069014646F0200088476C4DDBF80010286840F0010028607B
:201CCC00480813D2684809F0F9F98246BAF1040FF8D0D5F8180220F00300C5F81802B86CE5
:201CEC004068024660480321904701E001200490059800F029FEB86A0099806BD1F8FF1F6E
:201D0C008047049858B9B86C40680246564851469047D5F8180240F00300C5F81802386892
:201D2C008068014601208847504801688909FCD3B8F1010F02D1012007F072F8B86A40693D
:201D4C00014630468847B86A406B0146304688470128F8D166782EB1B86AC06A49460246C0
:201D6C00C88D904726782EB1B86AC06A49460246488D90473A49012008603A4801680322C3
:201D8C0021F00101016001988BF8042009F0D4FA0028059818BF01200125C0B9019C20465D
:201DAC0009F0C6FA0646B068C00806D3F0683169024604209047C0B230B9304609F0B4FAAC
:201DCC000646B442EFD102E02948006880472148009F0560D7F8FF0F09F09DF9019809F008
:201DEC00ABFA059FC8B9019C204609F0A1FA0646B068000906D3F0683169024608209047F7
:201E0C00C0B230B9304609F08FFA0646B442EFD103E0174800688047022702988BF8045056
:201E2C0009F07AFA05F01AFA039809F071FA38460AE00F4800688047022701208BF8040062
:201E4C00F2E7062000E0022007B0BDE8F08FC046A4B600000C400940900100104CB4000004
:201E6C00282008600C200840004003401410094098B600008433002094B60000A0300020E3
:201E8C000EB50191ADF8000000208DF80800B2E08148019900780870FAE001987F4910223D
:201EAC0003F000FEF4E001987D49102203F0FAFDEEE07C48019900680860E9E07A490198B5
:201ECC000A68026089888180E2E07848019900780870DDE07648019900780870D8E075488A
:201EEC00019900880880D3E0734901980A78734903F0D8FDCCE0724901980A78714903F0EF
:201F0C00D1FDC5E07048019900780870C0E06F48019900780870BBE06D4901980A68026061
:201F2C0089888180B4E06B48019900780870AFE06948019900780870AAE06848019900888C
:201F4C000880A5E06648019900780880A0E065480199008808809BE0634801990088088079
:201F6C0096E0624801990088088091E060480199008808808CE05F4901980A680260898836
:201F8C00818085E05C4801990088088080E05B480199008808807BE059480199008808802E
:201FAC0076E0584801990078087071E056480199007808706CE0554801990078087067E062
:201FCC00394901980A6802608988818060E050480199007808705BE0BDF80000272806DA73
:201FEC00BDF8000006F0B8FA0199088050E002208DF808004CE0BDF80000A0F540701D280C
:20200C0005D9B0F58070DBD0401EE0D0E4E702A151F820008746C0469D1E0000A71E00005E
:20202C00B31E0000BF1E0000C91E0000D71E0000EB1E0000F51E0000031F0000111F00009C
:20204C001B1F0000251F0000331F00003D1F0000471F0000E51F0000511F00005B1F0000F4
:20206C00651F00006F1F0000791F0000831F0000911F00009B1F0000A51F0000E51F0000D6
:20208C00B91F0000E11E0000AF1F0000C31F00009DF808000EBDC04697300020C82F002041
:2020AC00D82F002058300020283000201233002013330020143300201633002017330020C8
:2020CC00363300203733002095300020943000205633002093300020963000205C330020F7
:2020EC006433002066330020683300206A3300206C3300205E3300206E33002070330020F8
:20210C00723300207433002098300020753300208033002000B5ADF1240D009000200890D8
:20212C000098406801900098806802900198007B012829D10898411C08910DEB80010298D0
:20214C00007C40F00040C8600298417C7848084308994A1C08920DEB8101C8600898411CBD
:20216C0008910DEB80010298807C40F00040C860019890F859106F48084308994A1C0892E6
:20218C000DEB8101C8603FE00298017C6848084308994A1C08920DEB8101C8600298417CC6
:2021AC006548084308994A1C08920DEB8101C8600198007E18B10198007E01280AD1029843
:2021CC00817C5B48084308994A1C08920DEB8101C86009E00298817C5848084308994A1C53
:2021EC0008920DEB8101C860019890F85900FF280AD0019890F859105048084308994A1CA8
:20220C0008920DEB8101C8600898411C0891FF210DEB8000C160019803A95C3001F0CCFC9D
:20222C000199886608B900207FE001984449007B51F82000012839D1029A01980299126843
:20224C00806E097CB2F1804F01D1092200E0212206F046FD029A019802991268806E497C37
:20226C00B2F1804F01D10A2200E0222206F038FD029A019802991268806E897CB2F1804FE4
:20228C0001D10C2200E0242206F02AFD029A019801991268806E91F85910B2F1804F01D182
:2022AC000B2200E0232206F01BFD3DE0029A019802991268806E097CB2F1804F01D10A2268
:2022CC0000E0222206F00CFD029A019802991268806E497CB2F1804F01D1092200E0212240
:2022EC0006F0FEFC029A019802991268806E897CB2F1804F01D10C2200E0242206F0F0FC2B
:20230C00019890F85900FF280ED0029A019801991268806E91F85910B2F1804F01D10B2298
:20232C0000E0232206F0DCFC012009B000BDC046000480A000200080004000800004C0A019
:20234C0014B4000000B5ADF16C0D01900020199007F07BF9012807D108F099FA022803D18E
:20236C00199840F0010019906D48006800F44000800D012809D16B48006800F07F40010E0C
:20238C00012088401999084319906748007868486649006800F0FE004008086007F055F9D1
:2023AC00012803D161490868401C0860002002905E480299006888420BD902985D4AFF21CC
:2023CC0011540298401C02905848029900688842F3D80020039002902EE00298019951F8FC
:2023EC0020005249096800F0FF0081420AD90298019951F82000012100F0FF0081401998F0
:20240C00014201D0022089E00298019951F82000012100F0FF008140039801430391019995
:20242C000298444A51F820009DF8081000F0FF0011540298401C02900298019951F82000D9
:20244C0000F0FF00FF28C8D1092002F0EDF901983949086004A808F0FAFB01208DF82800D6
:20246C003648012104AA08F04FFF002002902F4802990068884237D9029901208840199980
:20248C00084205D002992E4A042042F8210023E00299012088400399084209D00298254931
:2024AC00085C019951F82010264801F0C1F807E00299244801F0FF0141F4C04101F0B8F8CB
:2024CC0002984FF0FF3100F0FF0006F0D5F802991B4A002042F821000298401C02901348D7
:2024EC00029900688842C7D80DA808F04FFB00200090164A144810210DAB08F001FF1448C4
:20250C001349006820F47C5040F40050086011490120086010490120086000201BB000BDB2
:20252C00B43F0050A83F0050923000204C30002080120840A02E0020783000203C2F00207C
:20254C00482B0020007FC767202F00203D710000003009400C4009400800094000B5ADF160
:20256C00140D01928DF801108DF8000000208DF80800BBE09DF80100082806D101999DF86C
:20258C000120694803F08EFACAE018208DF80800C6E09DF8010014280BDC64480021152210
:2025AC0003F0FDFF01999DF80120604803F07AFAB6E018208DF80800B2E09DF80100142802
:2025CC000BDC5B480021152203F0E9FF01999DF80120574803F066FAA2E018208DF80800A9
:2025EC009EE09DF8010014280BDC52480021152203F0D5FF01999DF801204E4803F052FABA
:20260C008EE018208DF808008AE09DF8010014280BDC49480021152203F0C1FF01999DF88D
:20262C000120454803F03EFA7AE018208DF8080076E09DF8010014280BDC404800211522A7
:20264C0003F0ADFF01999DF801203C4803F02AFA66E018208DF8080062E09DF801001428C5
:20266C000BDC37480021152203F099FF01999DF80120334803F016FA52E018208DF8080040
:20268C004EE09DF8010006F0EBFD03900398B0B12C482D490068814203D02A48006807F044
:2026AC00BBFA039801999DF8012003F0FBF90398244908609DF801002449087030E0132059
:2026CC008DF808002CE09DF80100072806D101999DF801201E4803F0E5F921E018208DF874
:2026EC0008001DE002208DF8080019E09DF800000828F7D801A151F820008746812500000F
:20270C009F250000C7250000EF250000172600003F260000672600008F260000D32600000C
:20272C009DF8080005B000BD5D310020663100207C31002092310020A8310020BE31002061
:20274C00D4310020F8310020EA310020FC310020FE3100202DE9F0411C4615468C4208BF8F
:20276C00854282BF00230022E5E0002C08BF002D0AD100290EBF00286FF000006FF0000163
:20278C0000F0E1F8BDE8F0815FF000085FF0000E002C08BF8D429CBF2C1C0025070C47EACC
:2027AC0001470E0CB44208BFBD429EBF5FEA044444EA15445FEA0545070A47EA01670E0A25
:2027CC00B44208BFBD429EBF5FEA042444EA15645FEA0525470847EAC1774E08B44208BF7E
:2027EC00BD4200F29380870847EA81778E08B44208BFBD427CD8C70847EA4177CE08B442E7
:20280C0008BFBD4266D8070947EA01770E09B44208BFBD4250D8470947EAC1674E09B442FE
:20282C0008BFBD423AD8870947EA81678E09B44208BFBD4224D8C70947EA4167CE09B44246
:20284C0008BFBD420DD8E60146EA5566EF01B14208BFB84201D3C01BB14158EB08085EEB0E
:20286C000E0EA60146EA95664FEA8517B14208BFB84201D3C01BB14158EB08084EEB0E0E8C
:20288C00660146EAD5666F01B14208BFB84201D3C01BB14158EB08084EEB0E0E260146EA96
:2028AC0015762F01B14208BFB84201D3C01BB14158EB08085EEB0E0EE60046EA5576EF0074
:2028CC00B14208BFB84201D3C01BB14158EB08084EEB0E0EA60046EA9576AF00B14208BFA5
:2028EC00B84201D3C01BB14158EB08084EEB0E0E660046EAD5766F00B14208BFB84201D3B1
:20290C00C01BB14158EB08085EEB0E0EA14208BFA84201D3401BA14158EB08085EEB0E0EC9
:20292C00A34208BFAA423EBF2D0A45EA0465240A89D3734642461E4617460B46024631468B
:20294C003846BDE8F0817047F8B504460020C4F209000068800880F0BB8007F0B0F842F2DC
:20296C002421C4F208010A68002112F0030F18BF0121D20828BF41F00201002C18BF41F07E
:20298C00040143F24006C2F2000696F90720821A052A04DAB2798A4208BFB2886FD041F228
:2029AC009C340F28A0F10F02C5F2000424DB02EB02121712072F88BF07273D46062D88BFD6
:2029CC00062554F825C00423A64603EB85035EF80330CD08A3EB0C0303F0FF0C24BFC3F374
:2029EC000725AC448D0824BFC3F30745AC444D0805D30CEB136C02E04FF0000C674654F87C
:202A0C002730CC0803F0FF0524BFC3F3072425448C0824BFC3F3074425444C0828BF05EB4F
:202A2C001365A2EB07221FFA8CF3534380330022082B88BF012243F6B473C5F200031C681E
:202A4C001B684FF4D07C34275219241703F0FF0307FB14C45C434FF6FF73B4FBF2F29342CA
:202A6C0038BF1A1C802892B2B28005DA10F1800F03DA6FF07F0000E07F20F071B17142F29F
:202A8C000800C4F2090001681F2A4FF00000316008D340F2FF11914206D25208401C914290
:202AAC00FBD301E01F22B2800F3A4FF600714FF0350E1209C8F2A401C4F2090E40EAC20034
:202ACC000143CEF8FB1F4FF0000CCEF8FFCFF8BD43F246024FF6FD50082141F2300EC2F2D5
:202AEC000002C0F2A4001170C4F2090ECEF80000F8BD704700B5ADF1140D009000984068AE
:202B0C0002900098806803905B480068416803980068884701900398006808F0DEF9019882
:202B2C00002800F088800298007AFF2840F0908081E0009804F032FA9CE00299C86E401E2A
:202B4C00C8660298C06E00B302990398896E0068097807F0C1FE0299886E401C886602987F
:202B6C00C06E02280BD20298406F40B902980021017203980068052107F08AFF7AE0039806
:202B8C000068012107F084FF74E00298406FD0B102980221017202990398496E0068097CFD
:202BAC00012207F04BFA0298406F012805D9039800680B2107F06CFF5CE003980068032166
:202BCC0007F066FF56E002980021017203980068042107F05DFF4DE00398006808F0D8F9B5
:202BEC000299096F08700299086F401C08670299486F401E48670298406F78B10298406F47
:202C0C00012805D903980068092107F041FF31E003980068012107F03BFF2BE00298002110
:202C2C00017203980068042107F032FF22E00298FF2101721EE00298007A00283FF479AF01
:202C4C00401E3FF47AAF401EC6D0FD38EFD111E00298FF2101720198400903D3009804F063
:202C6C009DF907E003980068042107F011FF009804F094F905B000BDAC01001000B5ADF101
:202C8C002C0D8DF800004F499DF80000087007208DF8010009208DF802004B4800788DF8D8
:202CAC0003004A4800788DF80400494800788DF80500484800788DF80600474800788DF8C0
:202CCC000700464800788DF80800FF208DF80A000D208DF80B0000208DF80C004049097828
:202CEC000DF10D000170374800788DF80E000E208DF821003B480068099000208DF828009D
:202D0C0029E00998E0B109988079A8B109999DF82100891D09786844401C01709DF82100CB
:202D2C00401C8DF821009DF82100411C8DF821100999097B6844417009980069099002E0B4
:202D4C00294800680990274809990068884202D101208DF828009DF821001B2803DA9DF8A6
:202D6C0028000028CDD009981E4908609DF82100411C8DF821101D490978684441709DF848
:202D8C002100411C8DF8211019490978684441709DF82100411C8DF821101649097868445E
:202DAC0041709DF8210009388DF8090012489DF8212000780DF10103012103F07BFF0BB0DD
:202DCC0000BDC046143200201E3200201F320020203200202132002022320020233200200F
:202DEC006D320020103200200832002071320020703200206C3200208E30002000B5ADF1D8
:202E0C006C0D0291019001984068179001988068189008F071FA1990179890F8A4000128E8
:202E2C0004D1199808F064FA002098E01799012081F8A400199808F05BFA029820B90FA8FC
:202E4C0007F07AFD0FA80290179800214165029817990069086102981799406948610298E7
:202E6C001799007E087602981799007B0873029817990078087002981799406848601799D6
:202E8C00002081F8700002984069092801D2002000E00120179981F858001898407901F0DA
:202EAC00C3FC019803F0A2FC18981799C07C81F859000198FFF72EF978B91898407901F06E
:202ECC001FFD08F019FA19901799002081F8A400199808F00DFA002041E003A807F061FE37
:202EEC00019808900020189900901E4A1798097903AB1C3008F004FA1798007878B903A8A8
:202F0C0007F0B0FE01208DF824001798002103AA383008F0F9F914491798816003E00298FD
:202F2C0017998068886003F0D1FF1799C8661798007B012809D117980C49806E07F038FC1A
:202F4C0017980199806E07F0CFFD00200090084A1798019B0421903006F00EFD01981BB0D4
:202F6C0000BDC046CD3C00004FA80000197D00004DAB000000B5ADF11C0D01910090FEF761
:202F8C0061FC4FF0FF3006F0D3FE0290029800284CD10020049003A904AA0DF10E0005F013
:202FAC0087FC00283CD101208DF81400BDF80E0010281FD14748BDF80C100088884219D10C
:202FCC0004980690069800884FF6FF7181420CD106984088000901D304F072F90698408830
:202FEC00800907D307F0BCFF04E0049805F018FE8DF81400049898B19DF8140080B1049831
:20300C0006F032FE0CE03448006806F0F5FE0590059828B1059805F0B4F8059806F0E8FD04
:20302C002D48006808F088F90028ECD02B480088C0080CD32949088820F00400088028489A
:20304C00007820B1274807F0FBFE08F0CDF823480088000A10D32149088820F0800008800D
:20306C002148006800220A2105F07AFE1E4800680F21002205F074FE18480088400A06D327
:20308C001649088820F48070088005F0EFFB13480088000B06D31149088820F4006008801D
:2030AC0005F0C2FB0D480088C00A06D30B49088820F48060088002F061FB08480088400B01
:2030CC00FFF45FAF0549088820F48050088003F04FFD56E78E3000205030002088300020C7
:2030EC001B320020C82D00205C30002000B5ADF11C0D0191009000F0E9FF4FF0FF3006F0BC
:20310C003FFE02900298002835D10020049003A904AA0DF10E0005F0EDFB00282BD10120D0
:20312C008DF81400BDF80E0010281CD14048BDF80C100088884216D1049806900698008818
:20314C004FF6FF71814209D106984088C00B0AD3384A0420042104F0C5FF04E0049803F00D
:20316C009FF98DF81400049828B19DF8140010B1049806F0B5FD3048008840083FD32E491E
:20318C00088820F0010008802C48007818B92C480078002833D02A48007818B103208DF8CB
:2031AC000C000EE0274800788DF80C00264800788DF80D0025490A680DF10E0002608988BA
:2031CC008180234800788DF81400224800788DF815001748007803A907F0CEFA78B11E4918
:2031EC00082008701D48006848B11C480068006828B11A48006801681748007888470E4821
:20320C000088800807D30C49088820F002000880002001F0A7FC08480088C008FFF46DAFD6
:20322C000549088820F00400088005F08FF864E78C300020583000201033002012330020F5
:20324C0013330020953000209430002056330020933000209630002098300020783300200E
:20326C0000B5ADF1140DADF800000020019000208DF80E00BDF80000001DADF80000FFE768
:20328C00BDF8000000F003008DF810009DF8100038B19DF81010BDF80000401A001DADF8D1
:2032AC00000007F00BFC3E490860BDF80000102803DC3C480068029002E03B48006802906C
:2032CC0002980088ADF80C00BDF80C00000C09D3BDF80C0080F40040ADF80C0000208DF89B
:2032EC000E0020E09DF80E0090B1019902980A880088801808800199BDF8000009888842B8
:20330C0011DC0198029002980088ADF80C001AE0BDF80000BDF80C10884214DD01208DF8D5
:20332C000E00029801900299BDF80C004018029002980088ADF80C00BDF80C000028C3D1B2
:20334C0000200290FFE7029810B3BDF80010BDF80C00401AADF80C00BDF80C0004280FDB04
:20336C000299BDF8000040180490BDF80C0004990880BDF80000029940F40040088004E0EF
:20338C000299088840F4004008800298001D02900348006807F048FA029805B000BDC046B3
:2033AC0048300020683000206C30002000B5ADF11C0D019100900098406802900098806805
:2033CC000390029890F85810019800888840ADF8140003980068B0F1804F01D13E4800E077
:2033EC003E4804900198806880B102983C4990F8580051F820000499886001988168BDF8D1
:20340C00140040180499401E48600BE00298354990F8580051F82000049988600298049989
:20342C0072304860039804990068083008600198049A018843F6F070491E00EA0110916842
:20344C000843906003980068B0F1804F01D1264800E0264804900198406880B10298244917
:20346C0090F8580051F820000499886001984168BDF8140040180499401E08600BE0029827
:20348C00184990F8580051F820000499886003980499801D08600398049900680830486034
:2034AC000198049A018843F6F070491E00EA0110916808439060039902988A680399C06E1F
:2034CC00C968114307F0CAF903980068032107F04BFA07B000BDC04630040020000500204B
:2034EC003CB4000044B40000400400201005002034B4000000B5ADF1340D009007F0F4FE4A
:20350C000190019803F0E2FD0290002003900020049007F019FE8DF820009DF8200018B179
:20352C009DF82000012802D16FF004007EE0029810B96FF0040079E00098406810B90020C5
:20354C00059012E000984068B0F1FF3F03D14FF0FF30059009E00098406805A903F084FD97
:20356C000790079808B1079860E00120079007F0B7FE0599081806903FE008A804F072FB89
:20358C000790079800BBBDF824000BA904F0A2F8B0B900988368BDF826100A9ABDF82C00B7
:2035AC00984768B1BDF82C0000998881BDF826000099C8810A98009908610020079023E069
:2035CC000A9903A804F04AFC012007900498401C04900598B0F1FF3F0FD0059868B107F00B
:2035EC007FFE0699081A0C900C9868B105980C99884200D208E00C98059002980599406849
:20360C0007F06AFE0028B8D102980399083004F00EFF049848B10298406807F059FE04985E
:20362C00401E049004980028F5D107980DB000BD00B5ADF1140D01910090019800F0FF00CB
:20364C008DF80C000198000803D301993E48484001909DF80C103D4850F821000290019853
:20366C0002994840009900220140480E00D301228DF80D200099029888430290009801995F
:20368C00084033490140029801430291009800F4E020B0F5E02F02D10298400E22D3009820
:2036AC0010F4E02F15D19DF80D00D8B111E0029820F4E0200290029840F4A020029011E098
:2036CC00029820F4E0200290029840F4C020029008E0029800F4E020B0F5A020F0D0B0F51E
:2036EC008030E4D09DF80C201848029940F822100098C00D09D30198C00D01D3012000E0B8
:20370C0000209DF80C10134A50540098000E18D307F0F2FD04909DF80C10012088400E49CF
:20372C00096881430198000E04D39DF80C200120904000E00020084307490860049807F082
:20374C00D7FD05B000BDC046006000A000100840007F077F00200240D02002400EB50090CD
:20376C0044480078012807D042480078022803D04048007803280ED100983F490622401D8B
:20378C0005F00AF828B9009800F00CF98DF804005BE000206DE0009800F004F98DF8040079
:2037AC0053E000208DF805009DF8050006280DDA9DF80500304A002111549DF80500401CE1
:2037CC008DF805009DF805000628F1DB29480078042849D129482A4904F096FF44E0254892
:2037EC00007838B900982449401D02680A608088888039E000203CE01E480078012833D0AF
:20380C001C480078032800D12EE0002031E000202FE018480078022803D016480078012882
:20382C0005D116484EF6602104F06EFF1CE000201FE01048007808B900201AE0009800F0D4
:20384C0021F8002015E0002013E09DF804000028A7D0401EC3D0401ECED0401ED7D0401E93
:20386C00D7D0801EE5D0EEE79DF804000149087001200EBD14320020383000205C2D00208F
:20388C0080EE360000B5ADF1140D009000208DF804000098C0780022022800D10122009823
:2038AC00C078002100B901211143009AD2780020032A00D1012008436FD066E000999DF853
:2038CC0004000969401C085CFF2853D100989DF804100069085C9DF8041040188DF80800BF
:2038EC009DF80400001D8DF8040037E000989DF80410006909182A48012204F04DFF58BBB3
:20390C0000999DF804000969401C085C8DF80C001AE000999DF80400009A0969801C126957
:20392C00095C9DF80400C01C105C009A1269000200EB01409DF80410091D515C09180491C0
:20394C00049802F031FD05E09DF80C00401E01D0401EDED0012021E000201FE09DF8080000
:20396C009DF80410884203DD9DF804001D28BDDB002013E000989DF804100069085C9DF8BC
:20398C0004104018401C8DF8040000989DF80410007B884292DC002000E0002005B000BD44
:2039AC006E3200200EB5009000208DF804000098C0780022022800D101220098C07800213E
:2039CC0000B901211143009AD2780020032A00D10120084365D05CE000999DF80400096929
:2039EC00401C085CFF2849D100989DF804100069085C9DF8041040188DF808009DF8040085
:203A0C00001D8DF8040030E000989DF80410006909182548012204F0BFFE30B900999DF8C1
:203A2C0004000969401C085C3CE000989DF80410006909181D48012204F0AEFE80B9009963
:203A4C009DF804000969401C085C012806D100999DF804000969801C085C23E0062021E0C1
:203A6C009DF80400801C8DF804009DF804009DF80810401C8142C7DC062013E000989DF82E
:203A8C0004100069085C9DF804104018401C8DF8040000989DF80410007B88429CDC06202F
:203AAC0000E006200EBDC0466D3200206E32002000B5ADF15C0D02910190019840681490DF
:203ACC0001988068159007F017FC0F90149890F89800012804D10F9807F00AFC002062E03B
:203AEC001499012081F898000F9807F001FC029820B910A807F046F910A802900298C168D2
:203B0C00019800F065FF08B100204CE0029814990078087002981499406848600298149992
:203B2C00007AC86003A807F021F8019808900020159900901D4A1498496803AB103007F0E4
:203B4C00DFFB03A807F069F801208DF824001498012103AA2C3007F0D7FB1498007840B9F5
:203B6C001498002103AA483007F0CEFB104914984160149800210172149800218167149840
:203B8C000021C1671598007A00F04EFE019803F073FD00200090074A1498019B042184304F
:203BAC0005F0EAFE019817B000BDC046012B000001A00000F9A1000000B5ADF11C0D019184
:203BCC0000903B4807F0EEFA4FF0FF3107F084FB0020029001208DF80C000020049019E0F1
:203BEC0034489DF814100068884205D99DF81400314951F8200018B100208DF80C0016E078
:203C0C009DF81410012088400499084304900298401C0290019850B10298019951F82000BB
:203C2C0000F0FF00C0B2FF288DF81400D8D19DF80C0010B90020009031E000980021016069
:203C4C000098002141600098002181600020029018E09DF81410184A009842F821009DF817
:203C6C0014200099012090404A68104348600298019951F820201149009805F051F8029846
:203C8C00401C0290019850B10298019951F8200000F0FF00C0B2FF288DF81400D9D10448DC
:203CAC0007F080FA07F014FB009807B000BDC0463C2F00204C300020482B0020007FC76708
:203CCC0000B5ADF1140D009000984068029000988068039003980068012106F031FC049013
:203CEC0003980499006807F01CF9049840082ED303980068012106F043FE0298406D18B1BB
:203D0C00009800F061F85AE00398006806F0F7FE03980068032106F01BFE039902988A6830
:203D2C000399C06EC968114306F05AFE2548016803980068B0F1804F02D14FF4807001E0AA
:203D4C0040F201108847009802F050FD37E002980399C06EC96805F021FF50B103980068A9
:203D6C00022106F0F5FD02980399C06EC96806F037FE02980399C06E896805F00FFFF0B173
:203D8C0003980068012106F0E3FD02980399C06E896806F025FE0298406D00210174029837
:203DAC00406D01900298406D406805F08DFB0298002141650298019982680098904705B0AA
:203DCC0000BDC0467800001000B5ADF11C0D009000984068019000988068039007F08CFA1F
:203DEC0005900198406D18B9059807F081FA65E0059807F07DFA0398006806F080FE03989A
:203E0C000068032106F0A4FD039901988A680399C06EC968114306F0E3FD03980068012102
:203E2C0006F0AEFD03980068012107F07AF82448016803980068B0F1804F02D14FF48070F9
:203E4C0001E040F201108847009802F0CFFC0198406D406805F038FB0198406D007C04280A
:203E6C0003D00198406D03210174039901988A680399C06EC968114306F09AFD039800687E
:203E8C00B0F1804F01D10F4800E00F4804900198426D0498816843F6F07008401168A1EBFF
:203EAC001011491E11600198406D02900198002141650198029982680098904707B000BDC4
:203ECC007800001030040020000500202DE9F843804607F01AF9002100B901213A4D2D1FE5
:203EEC0028680028FCD0DFF8DC90012609F10407FC6A2E6009B107F00EF93448C4F30721BC
:203F0C0000F10804616007F000F90146002001B93046014628680028FCD03F682E6009B196
:203F2C0007F0F9F8C7F38441A8F5C060A160B8F5C06F2060B4BF6FF001030223626803EB41
:203F4C004003032093FBF0F00918104602290FDB1E290BDB3F28B9BF521C401C3F22101C92
:203F6C00E2603029B4BF10391F210DE0E0600BE010F13F0FACBF401E6FF03F00E06011F18E
:203F8C00100FACBF10310021216180B24FF47F42082330210090484603F00EFE00964846B4
:203FAC0004214FF40032112303F006FE208A04214FF4F80212230090484603F0FDFDBDE83F
:203FCC00F883C04600A00C4004800C403036002081F000412DE9FC414FEA01244FEA410530
:203FEC002D0E04D1002C18BF0020BDE8FC8144F00044FF2D5ED04FEA9404002948BF6442E7
:20400C004FEA00224FEA40031B0E05D1002A14BF0020081CBDE8FC8142F00042FF2B4AD0A3
:20402C004FEA9202002848BF52425E1B41BF171C221C3C1C764248BF2B1C192E47BF44FA11
:20404C0006F73A444FF0000803E0C6F11C0704FA07F8002A04BF0020BDE8FC8146BF524210
:20406C0001270027A3F101035200FBD512F080040DD002F0200548EA0508803228BF5B1C62
:20408C0002F0400458EA040808BF22F480729B1CDCBF0020BDE8FC81FF2B0ED222F0FF0210
:2040AC004FEA42024FEA522040EAC35040EAC770BDE8FC8108464FEAD0774FEAC777FF20A8
:2040CC004FEAC0503843BDE8FC81FEE70EB52C482C4905F035F92C49002008702B494FF674
:2040EC00FF70088005F00EF82949087000202A4900900120019027480022002303F0A0F9C3
:20410C000020254900900220019024480022002303F096F900202049009004200190204859
:20412C000022002303F08CF91E49062008701E481022002102F033FA1C480021102202F030
:20414C002EFA1B49002008601A49002008701A49002008701949072008701949002008704E
:20416C00114A0220102103F095FF104A0320102103F090FF0E4A0420042103F08BFF0EBDE5
:20418C008C3000207C300020983000205C3300209B300020102E00203BB10000342E00201D
:2041AC00582E002097300020C82F0020D82F002058300020953000209430002093300020D4
:2041CC009630002038482DE9FC4700680068014620208847354DDFF8D8A04FF002080F20A5
:2041EC0000214FF4C072072345F82D0C41F61D5045F8290C5046CDF8008003F0DDFC2D4C47
:20420C00012644F8046C54F8040C8008FBD3DFF8A890B9F8000045F81D6C01281FD003204C
:20422C0045F8390C0027276020688008FCD23946504660220523009103F0BEFC2660206859
:20424C008008FCD345F8216C45F8397C0820C5F8FF0FC5F8F30F45F8396C464620E00027F8
:20426C00E760032045F8390C276020688008FCD2CDF80080504639466022052303F09CFC52
:20428C00266020688008FCD3202045F8210C45F8397C0824C5F8FF4FC5F8F34F45F8396CF9
:2042AC00C9F80460BDE8FC87A001001039400C4000A00C4038600C403036002000B5ADF186
:2042CC00140D07F00DF80090344800680190002002900198A0B1019881680098401A304927
:2042EC00814205D20198029900F0D8FB019004E00198029001980069019001980028EAD172
:20430C00284800680190002002900198002842D0019881680098401A2149814233D2019864
:20432C002149062204F038FA10B30198029900F0B5FB01902CE01D490020087000208DF8E2
:20434C000C009DF80C00062819DA9DF80C00164A002111549DF80C00401C8DF80C009DF8D9
:20436C000C000628F1DB0AE00320FEF787FC06E00E48007818B1401EDDD0401EF4D0019863
:20438C000069019004E00198029001980069019001980028BCD105B000BDC0460832002055
:2043AC00801A06000C3200203830002014320020F8B506F0AAFE314C256805F00C000C287B
:2043CC0055D0E8082ED22E480068EFF3118780F311882C4EB068002106F076FF7169B26945
:2043EC00091A8A4238BF002187F3118826480068884217D22548264A264D03681268286849
:20440C00B3FBF2F22018891A06F05AFF2868201806F052FF0120FDF7B9FB2868201806F03E
:20442C0047FF25E0280922D21B48690939BF016821F00101016841F0010102460160D2F8A8
:20444C0098004FF0805440F00300C2F89800D4F8B8018069014620208847D4F8B8010F4C7C
:20446C00806B2168804701202060206800E030BF06F051FE02F0C5FDF8BDC0468433002072
:20448C00A4B60000780100209CB60000A0B60000A8B600008CB600008C2108402C2009404B
:2044AC0080B502AFADF1200DADF8143004920391ADF8080000208DF81600FF208DF8170009
:2044CC000398007A800901D308205BE003980078022841D1039803994068496840780978E3
:2044EC0000F0FF0001F0FF0101EB0021ADF8181025E0388810B10B208DF816009DF81600FF
:20450C0068BB03980499BDF81420C06801F0CAFA01208DF8170022E03888009001200190AD
:20452C00BDF814300399049ABDF8080001F0ECFB8DF8160013E00A208DF816000FE0BDF8B0
:20454C00180042F60211401AE6D04DF2EF61401A05D0401ECDD0EEE701208DF816009DF8FD
:20456C001700FF280CD00848006848B106480068006828B10448006801689DF817008847D5
:20458C009DF8160008B080BD9436002000B5ADF1140D8DF804100090142004F029FE029007
:2045AC00029808B900205DE000980299C07A087302980021016106F093FE0299886000998F
:2045CC000298491D0A680260898881809DF8040008BB0098016902980C310978801D017025
:2045EC00009800690299407BC8711F48006870B11D480068039002E00398006903900398BB
:20460C0000690028F8D102980399086129E002981549086025E09DF80400012821D103A8C8
:20462C000021012201F0BBFF03A902980978801D017002980021C1710C48006870B10B488D
:20464C000068049002E0049800690490049800690028F8D102980499086102E00298034979
:20466C000860029805B000BD083200200C32002080B502AFADF1280D05938DF81020039168
:20468C00029000208DF81900029828B1039818B1059808B1B86808B9022052E000208DF8B7
:2046AC00180046E09DF81810029800EB81000790079800884FF6FF71814235D0079880781B
:2046CC00002831D039880598039A03F033FD0890089848B307988078400810D33879009051
:2046EC00B8680190089B07989DF810200088012100F046FF9DF8191008438DF819000798D1
:20470C008078800810D338790090B8680190089B07989DF810200088022100F031FF9DF8D1
:20472C00191008438DF819009DF81800401C8DF8180005489DF8181000788842B2DC9DF846
:20474C0019000AB080BDC0469B30002000B5ADF11C0D0191009000208DF8080000984068C1
:20476C0004900098806805900198406828B90198C06810B99DF8080053E0049800780128CB
:20478C001AD106F0B9FD03900498806F58B104990198C96F886101980499C867039806F002
:2047AC00A7FD01203DE001980499886701980499C867039806F09CFD05F082FB04982C30ED
:2047CC0006F0EAFC4FF0FF3106F086FD0598406806F06AFD0098019900F01EFD05984068E5
:2047EC0006F05EFD0498007880B90498483006F0D3FC4FF0FF3106F06FFD05F04DFB04988C
:20480C00007A30B901208DF8080002E001208DF8080004982C3006F0BFFC06F059FD9DF861
:20482C00080007B000BDFEE72DE9F04105462E480068EFF3118880F311882C4A505D411C94
:20484C000028515549D12A4CA900675C07F03F003F280C4401D0FFF7E7FF607800F03F00E1
:20486C003F2801D0FFF7E0FF668837F07F0019D1F80911D24FF08054D4F8B8014069014635
:20488C003046884704F5DC742068406B0146304688470128F8D120E0164850F826100120D0
:2048AC0088471AE04FF08054D4F8B801C069014630468847D4F8B801406A0146304688471B
:2048CC00D4F8B801C06A01463046884701210A4A0A48116001688908FCD388F3118828460D
:2048EC0005F002FBBDE8F081A4B60000A03000204CB40000B8300020282008602820084012
:20490C002D492DE9F0410968EFF3118881F311882A4B195C4A1E01291A5449D128498000E0
:20492C0045180E5C6F8836F07F0019D1F00911D24FF08054D4F8B80180690146384688472D
:20494C0004F5DC742068406B0146384688470228F8D120E01D4850F82710002088471AE07B
:20496C004FF08054D4F8B801006A014638468847D4F8B801806A014638468847D4F8B8010D
:20498C00006B01463846884701210E4A0E48116001688908FCD306F03F003F2801D0FFF79F
:2049AC00AFFF687800F03F003F2801D0FFF7A8FF88F31188BDE8F081A4B60000A0300020E5
:2049CC004CB400002820086028200840B830002000B5ADF1240D019100900020079000988E
:2049EC0080680290019840B90298007B8DF80C000298407B8DF80D0007E0019800788DF895
:204A0C000C00019840788DF80D009DF80C00FF2803D09DF80D00FF2802D14FF0FF3035E0E1
:204A2C009DF80C101A48084307994A1C07920DEB810108619DF80D101548084307994A1C2A
:204A4C0007920DEB810108610798411C0DEB80000791FF210161104804A9FFF7ADF80D494A
:204A6C0008600C48006810B94FF0FF300EE009489DF80C1000680D2204F032F905489DF847
:204A8C000D1000680E2204F02BF9002009B000BD00200084643000201C3000200EB501918E
:204AAC000090009808B9002054E0019858B92A4800990068884206D02848009900688842B5
:204ACC0001D0002046E0264800990068884202D123490020086020480099006888420ED0A2
:204AEC001E4800990068884209D00098019900690861009805F07CF8019800692AE0164831
:204B0C000099006888420FD10098134900690860009805F06DF81048006808B9002019E08D
:204B2C000D480068006915E00C480099006888420FD10098094900690860009805F058F8B7
:204B4C000648006808B9002004E004480068006900E000200EBDC046083200200C32002028
:204B6C001032002000B5ADF1140D8DF800002549254809880088884211DC244821490088C5
:204B8C00098888420BDB2348214900880988884205D1224820490088098888422BD0052064
:204BAC0003F0DAFCADF804001D480088ADF8060015480088ADF8080014480088ADF80A00BA
:204BCC0014480088ADF80C0014480088ADF80E000DF1060005F074FE8DF801009DF8010016
:204BEC0060B99DF800000F490870BDF804100E4803F08AFD02E018208DF801009DF801005C
:204C0C0005B000BD6E3300206633002068330020703300206A330020723300206C330020DD
:204C2C005C33002076330020582E00200EB5009000208DF804000098C0780022022800D161
:204C4C0001220098C078002100B901211143009AD2780020032A00D10120084343D03AE06A
:204C6C0000999DF804000969401C085C092827D10098009A9DF804109DF804300069126913
:204C8C00891C40189A5C1949521ED2B203F084FD08B9002028E00098009A9DF804109DF8F2
:204CAC00043000691269891C40189A5C1049521ED2B203F071FD08B9012015E0022013E043
:204CCC0000989DF804100069085C9DF804104018401C8DF8040000989DF80410007B88424E
:204CEC00BEDC032000E004200EBDC0461E3200201532002000B5ADF1140D009006F0F4FA57
:204D0C0000F08EFD029005F0D9FE0390002001900198072840D20199880000EBC100234956
:204D2C00085A18BB0199880000EBC10000991F4A8988115201991E4A880000EBC10002991D
:204D4C0011500199880000EBC1000099194A89681150BDF804000099888102980099406894
:204D6C000861039805F060FD00201CE00199880000EBC1000D49085A00998988884205D1E5
:204D8C00039805F051FD6FF002000CE00198401C019001980728BED303F07AFE039805F002
:204DAC0043FD6FF0030005B000BDC046C42B0020C82B0020CC2B002000B5ADF12C0D009078
:204DCC0000988068002832D10C20FEF749FA0190019810B96FF0030047E002A805F002FF9C
:204DEC000020ADF818000020079001980890009841681F4802AA002306F04EFA019908602B
:204E0C000198006838B905F0C5FC019803F048FF6FF0030029E000980199C0684860009806
:204E2C0001990069886001980099886012E00098806801900F480068804702900198006845
:204E4C0006F036FA00980199006988600A48016802988847019800990068496806F030FA0E
:204E6C000198006806F028FA00200BB000BDC046CDAD0000843600208836002000B5ADF1EA
:204E8C00140D019100900098406803900098806804900198006808B900204DE006F02CFAB1
:204EAC0002900398406D38B1029806F021FA01980321017400203FE001980121017403993B
:204ECC0001984865029806F013FA039890F8700040B10399039891F859201849806E114383
:204EEC0003F06EFD0498006805F014FE00980199FEF75CFA04980068012105F04DFD0198C2
:204F0C00406804F0FDFA03980078A0B90398383006F04EF90399496806F0DEF958B9009883
:204F2C00FEF752FF0398383006F042F9002106F0D3F9002000E0012005B000BD00000680EF
:204F4C0000B5ADF11C0D0292019100900098806804900098406803904FF0FF30069041E007
:204F6C00039A127B00210020012A00D1012000B10121039880F87010002006903AE00399CB
:204F8C00002081F870000020069033E0029801781A480843059003980599806E00F04AFF7E
:204FAC0040BB049A039802991268806E0978B2F1804F01D10B2200E0232203F091FE03987A
:204FCC000399806E91F8591000F006FE02980399007881F85900002006900BE06FF00100D4
:204FEC00069007E001982038BAD0401EC7D0401ECCD0F3E7069807B000BDC046002000802C
:20500C0008B52748007802280BD1254900200870002006F01DF820B9224800680168032072
:20502C0088471F48007801280BD11D4900200870042006F00DF820B91A4800680168022066
:20504C008847174909780020012900D1012050F0020021D0124900200870042005F0F8FF22
:20506C00D0B9002005F0F4FFB0B906E00F480E490068B1FBF0F006F00BF9042005F0E8FFA8
:20508C000028F3D0002005F0E3FF0028EED00548006801680420884705490120087008BD7F
:2050AC007E36002078360020A0860100A8B600007F36002041F21C3010B5C5F20000046881
:2050CC00B4F1FF3F08BF002405F098FE40F2844346F25C01002242F2082E012040F2801C62
:2050EC00C4F26023C4F20C011A60C4F2043E0860C4F2283CCEF80000DCF8000038B140F2FF
:20510C000010C4F2203000682046FBF769FA44F20402C4F203021068052142F24803C2F282
:20512C000001C4F2030320F003000143116019684FF0000EC0F2391E6FF35B414EEA0100D0
:20514C000421C4F2090118600868C0F30130012809D10A684FF6FF70CFF6FC40104040F4E4
:20516C0000320A60086010BD00B5ADF1140D8DF800003DE04FF4417001A9FCF781FE9DF897
:20518C0004008DF80C009DF805008DF80D009DF806008DF80E0000208DF8100000208DF8BA
:2051AC000F009DF809008DF813009DF808008DF812009DF807008DF81100082103AA002042
:2051CC00FDF7CCF924E040F2153001A9FCF758FE1EE0104805F03EFE142003F0E1FD03F01D
:2051EC0045FB15E0142003F0DBFD03F03FFB0FE09DF80000401EBDD0401E09D0801EE8D046
:20520C00401EEFD0401EDED0401E01D0401EFFD005B000BDC82D002000B5ADF1140D019170
:20522C0000900098406802900098806803900299019848660198029900688866019802994D
:20524C004068C866019802998068086701980299C06848670298C06ED0B102990398496EA0
:20526C000068097C002204F0E9FE02980121017202998A6E12F8011B0398029B00689A66B0
:20528C0005F02AFB03980068032105F001FC19E002990398496E0068097C012204F0CEFE19
:2052AC000298022101720298406F022805D203980068032105F0ECFB04E0039800680B2152
:2052CC0005F0E6FB05B000BD00B5ADF1140D009006F00AF800F0A4FA0290029820B903F0F8
:2052EC00D7FB6FF003003EE005F0E8FB039000200190019807282FD20199880000EBC1009D
:20530C001A49085A10BB0199184A880000EBC1004FF6F87111520199154A880000EBC10083
:20532C00029911500199134A880000EBC10000211150BDF804000099888002980099406883
:20534C008860039805F070FA00200CE00198401C019001980728CFD303F09AFB039805F04B
:20536C0063FA6FF0030005B000BDC046C42B0020C82B0020CC2B002029482DE9F84FD0F81B
:20538C000090EFF3118589F31188264CA068012105F09AFF4FF0010A4FF000080646216854
:2053AC006769A4F81CA02068A4F81E80791A321A8A42A6EB07062DD385F311884546EF190A
:2053CC005046394605F060FF761B0546B542F6D9EFF3118B89F31188E08B012804D1404634
:2053EC00394605F051FF0546B5F1FF3F06D0A169AD1BA94238BF0D1CE91901E0A569791978
:20540C00284605F03DFFA4F820A0A4F81C805D46276001E0A4F81C8085F31188BDE8F88FCD
:20542C00A4B60000780100208CB504AFADF80630ADF80420ADF80210ADF800001F4800789A
:20544C00062801D0142038E0BDF80000062833DBBDF80000B0F5486F2EDABDF80200062806
:20546C002ADBBDF80200B0F5486F25DABDF80400B0F5FA7F20DABDF806000A281CDBBDF89F
:20548C000600B0F5486F17DABDF800000C490880BDF802000B490880BDF804000A490880F4
:2054AC00BDF80600094908803878FFF75BFB084805F0D0FC002000E018208CBD98300020D5
:2054CC0066330020683300206A3300206C330020342E00200EB500903DE000982649C01CFB
:2054EC0002680A608088888044E00098C0780022022800D101220098C078002100B90121BC
:20550C001143009AD2780020032A00D10120084318D00098FFF78AFB8DF804009DF80400A0
:20552C0018B19DF80400012824D19DF80410009804F076F99DF8040001281BD10098FEF700
:20554C000DF917E00098C078042813D112E00B49002008700EE0009880780028BDD0401EF3
:20556C00F5D0401E06D0401E04D0401E02D00938BBD0FFE70EBDC0463030002074320020FB
:20558C0090B503AFADF1240D04938DF80F208DF80E10ADF80C00BDF80C001B214FF6FF72E7
:2055AC0008AB03F037FD07900798002837D000200090BDF820000190FF2002907C68049958
:2055CC00079ABDF80C000DF11A03A0478DF822009DF82200D8B904984089ADF818009DF8B5
:2055EC000E00400809D3BDF80C009DF80F2006A904F07BFA8DF8220009E0BDF80C009DF8EA
:20560C000F203B7806A904F0E7F98DF822009DF8220038B106A81B2104F0DAFC02E0152007
:20562C008DF822009DF8220009B090BD00B5ADF1140D0190019901988968406808600020A1
:20564C000390039838BB142005F031FD03990DEB8101886003980DEB80008068A8B900204C
:20566C0004900398049988420CD904980DEB8000806805F03EFD0498401C049003980499B3
:20568C008842F2D86FF003001EE00398401C039003980028D7D000200390039898B9002057
:2056AC0000900A4A039903980DEB8000515C019A80689368064A04F05FF90398401C0390FA
:2056CC0003980028EBD0002005B000BD83B50000197B000000B5ADF1140D009005F034FDB8
:2056EC008DF810009DF8100018B19DF81000012802D16FF004003AE005F0F6FD019005F00F
:20570C00DDF9029000200390039807282AD20399880000EBC1001749085A00B922E00399B3
:20572C00880000EBC1001349095A00988088884212D1039A900000EBC2000F4A1058026818
:20574C0001980021904200D1012100988160029805F06AF800200AE00398401C0390039825
:20576C000728D4D3029805F05FF84FF0FF3005B000BDC046C42B0020C82B002008B5224832
:20578C00006848B902F040FB2048214902F0BCFF204800F009FE32E01B4800684AF210411F
:2057AC0081420BD21C481D4902F0AEFF164800684AF21041401A1449086020E003F030FE41
:2057CC0004F084FC01460E4800F0A8FE0D4900F07BFB00900C4801684FF47A704843A0F5C0
:2057EC007A7004F073FC0099FEF7F4FB03F0E4FF0146094802F088FF03490020086008BD53
:20580C000000FA440000804F843000205C2D002080EE3600805101007C2E002080DE8002D2
:20582C0000B5ADF1140D009005F048F9029000200190019804283DD20199880000EBC1003D
:20584C001F490858E8B90199880000EBC1001C4909180391009803990860039800218160B2
:20586C0000220021002005F007FD039948600398406808B903F00CF9029804F0D5FF039883
:20588C001CE00199880000EBC1000D4908580099884209D1029804F0C7FF0198810001EBE5
:2058AC00C0010748401809E00198401C019001980428C1D3029804F0B7FF002005B000BDD6
:2058CC00082D0020F8B5264C2068EFF3118680F3118824491D4D0B680420B0FA80F043F080
:2058EC000403281A1F3002780B60521C027086F311882068EFF3118380F311880A68082089
:20590C00B0FA80F042F008022D1AE87F0A60401CE87783F311880E20FEF786FF0C480068DF
:20592C00C0F38150032814BF0020012009490A4A088017683FB9094C402020600123D36166
:20594C0000204860F8BD0120F8BDC046B3300020B43F00503036002004800C402C500C407E
:20596C00A4B6000084330020F0B520480127F84201D002F011FD204D204F214EBD4206D288
:20598C0003CD0478A4003459401CA047F6E71D48002800D08047164D164FBD4202D210CDC2
:2059AC00A047FAE7F0BD03251BE0416808300A1C2A400BD11A1C2A40AB4305D004680430F3
:2059CC000C600431043BF9D1131C05D0047801300C700131013BF9D1021C2A4001D0A84368
:2059EC0004300368002BE0D17047C046FFFFFFFF0000000000000000A0BC000028BD000026
:205A0C0020BC000059C5011000B5ADF14C0D05F097FC0190002000900098002832D102A88D
:205A2C0005F046F900981A4951F8200008900098184951F820000A900098174951F82000CD
:205A4C0006900098154951F8200007901448002202A905F00DFC1190119808B903F018F879
:205A6C0005F02CF812901198FFF7DAFE08B903F00FF8129804F0D8FE0098401C009000989D
:205A8C000028CCD0019805F043FC13B000BDC04600B6000004B60000FCB5000080360020EC
:205AAC0015A90000002A4AD05FEA000C8B071CD1830722D1102A08D370B4103A78C978C08B
:205ACC00103AFBD270BC103238D0042A2CD3082A05D30C2A24BF08C908C008C908C008C9DA
:205AEC0008C092072AD0920F22E00B780370491C401C521E22D08B07F7D1C30714D18307F0
:205B0C00D8D0121F12D308C903801B0C4380001D121FF8D20AE008C903701B0A43701B0A3A
:205B2C0083701B0AC370001D121FF4D2121D05D00B780370491C401C521EF9D160467047A8
:205B4C000EB500900098C0680C3802900098C088072803DA00988088072802DB6FF0020057
:205B6C0036E004F0ABFF01900098C188880000EBC1001849085828B9019804F055FE6FF0DE
:205B8C00020025E0019804F04FFE0098029900790871009802998079487100980299007A61
:205BAC0088710098C188880000EBC100094908580099C968083002F051F90098C188880072
:205BCC0000EBC10003490858406805F081FB00200EBDC046C82B00200EB58DF80410009058
:205BEC00009800283AD09DF804100120884000994968084232D09DF80410009A012088407B
:205C0C005168814351609DF80410154A002042F8210014499DF80400085CFF2809D19DF8D7
:205C2C000410114801F0FF0141F02041FDF700FD0AE09DF804000B49085C0C49096851F82D
:205C4C0020100948FDF7F4FC9DF804004FF0FF3100F0FF0002F010FD002000E002200EBDF0
:205C6C00482B0020A02E0020007FC7677830002080B502AFADF1180D039302920191ADF818
:205C8C00000000208DF810000198007A400901D3082037E03888002801DD0B2032E0019838
:205CAC000078022826D101980199406849684078097800F0FF0001F0FF0101EB0021ADF8E8
:205CCC00141010E003981421018001990298C9681422FFF7E7FE13E00398002101800A2083
:205CEC008DF810000CE0BDF814004FF6F171401AE8D0F1E703980021018001208DF81000CA
:205D0C009DF8100006B080BD80B502AFADF1180DADF80C3002920191ADF8000000208DF8E5
:205D2C000E003888002833D1BDF80C0002282BD1029802994078097800F0FF0001F0FF0128
:205D4C0001EB0021ADF81010B988BDF81000884316D10199C968BDF80000096804F024FAAA
:205D6C00BDF81010814216D00199BDF80000C968BDF81020096802F035FB8DF80E000AE024
:205D8C0080208DF80E0006E00D208DF80E0002E00B208DF80E009DF80E0006B080BDF8B53B
:205DAC00064604F001F842F6B475C2F200056F68044603F084FE2A69E41B4FF47A7161438A
:205DCC00090C801A48BF404240F6B83289198A4216D3062814DAA968E868814210D82A684E
:205DEC0072B1401A44F24021C0F20F014143080C00EB9140824212D91046C82811D312E0A2
:205E0C0043F6AC71C5F200014868400828BF4FF4FA600DD209687D2001F0FF014843C82893
:205E2C0001D2C820F8BDB0F57A6F88BF4FF47A60F8BDFEE70EB501910090019800F0FF00ED
:205E4C008DF80900009828B11B489DF809100068884201D802202DE0184805F0A3F94FF0BC
:205E6C00FF3105F039FA9DF80900154951F8200018B101208DF8080015E09DF80910104AE5
:205E8C00009842F821009DF809200099012090404A681043486000980A49019A02F040FF57
:205EAC0000208DF80800054805F07CF905F010FA9DF808000EBDC0464C3000203C2F0020DE
:205ECC00482B0020007FC767FCB590EA01064CBF4FF000460026020243001B0E12BF42F01B
:205EEC0000420020FCBDFF2B32D05FEA01245FEA41055FEA156512BF44F000440020FCBD6D
:205F0C00FF2D25D05B1B0020202764085208A24240EB000028BF121B7F1E04D0002A18BF1C
:205F2C005200F4D1B84010F0004F04BF4000B3F1010380302CBF5B1C40007F33DCBF00208D
:205F4C00FCBDFF2B04D2400A40EAC3503043FCBDFF27FF0556EA0700FCBD704700B5ADF195
:205F6C00140D009005F0C0F9019005F0EDF88DF810009DF8100018B19DF81000012802D1A7
:205F8C006FF004002CE004F099FD029000200390039807281FD20399880000EBC1001149D2
:205FAC00085AC0B10399880000EBC1000E49085801680198884208D1BDF80C000099888074
:205FCC00029804F031FC00200AE00398401C039003980728DFD3029804F026FC6FF00400D7
:205FEC0005B000BDC42B0020C82B002008B58DF801108DF800001A4805F0E0F81749164A3A
:20600C000968B2FBF1F105F067F908B9002022E09DF801001349087013489DF8001000785A
:20602C00884217D09DF800000F4908700F48006804F0B6FF0E4804F0A5FE0B4800780128F5
:20604C0002D10D480B4908600949002003F0BCFD06490860012008BDA0252600A8B600004C
:20606C00582F00209C3000209A30002070300020E82F0020F42F00200AB500000EB500904B
:20608C0000980079E0B104F019FD01901C480078FF2805D1019804F0C7FB6FF006002EE01C
:2060AC0017490878401C087015480078012803D11448006802F0BCFA019804F0B5FB1DE0A8
:2060CC0004F0FCFC01900E48007828B9019804F0ABFB6FF0070012E009490878401E087055
:2060EC000748007838B9019804F09EFB0548006802F07AFA02E0019804F096FB00200EBDB0
:20610C00B0360020B436002038B5042003F03BFF1A4C022818BF03281FD103200090164892
:20612C0000214FF040521C2301F046FD17480068EFF3118380F3118815480421B1FA81F106
:20614C00401AC17F4A1E0129C27703D1206820F00400206083F3118838BD094D0A48094ADF
:20616C00296803686018B2FBF3F105F0A9F82868201805F0A1F838BD00A00C40843300206A
:20618C0090B60000A0860100A8B60000A4B60000B330002010B51A481A490078086820F049
:2061AC00030040F00100086002F0B9FE01F056FC0021154C154821600068C06801460220F2
:2061CC0088471349134A086820F0010008601068D4F8EC1FEFF3118480F311880E4B0F48C0
:2061EC001A680421B1FA81F1401A42F00402C17F1A60491CC17784F311884FF0FF3010BD9B
:20620C00923000200440034040100940A00100108C210840A4B6000084330020B330002096
:20622C00F8B505461E480068EFF3118780F311881C4C20684FF0805640F080002060D6F803
:20624C008C014068014601208847D6F8B001006A014614208847286906F5C675810C14BF6C
:20626C00010C04212868406A024601209047D6F88401006823210246002090472868C0696F
:20628C00014601208847206820F4C02040F480302060206840F00100206087F31188F8BDDA
:2062AC00A4B600000020094000B5ADF1140D009005F01AF80190019800F008FF029004F05D
:2062CC0043FF8DF810009DF8100018B19DF81000012802D16FF0040026E0029810B96FF0A1
:2062EC00040021E00098406810B90020039012E000984068B0F1FF3F03D14FF0FF300390EB
:20630C0009E00098406803A900F0AEFE0490049808B1049808E002980399406804F0DCFFE6
:20632C0008B1002000E0012005B000BD41F2A00010B5C5F20000D0F8781203680A0F03F0ED
:20634C00FF03802B28BF0023D0F878024BF69A11C0F30F344FF0FF30A14213D02431A142EA
:20636C0007D04BF62031A1421DD1E2B90A3358B210BD12B1921E02D010BD0A2010BD1433D8
:20638C0058B210BD521E0DD0921E04D0121F04D0521E04D010BD142010BD152010BD1633E7
:2063AC0058B210BD0A2010BD0EB5009000984AF2104181420AD21848184902F0A5F9009803
:2063CC004AF21041401A164908601FE003F028F803F07CFE01460E4800F0A0F80D49FFF713
:2063EC0073FD019000994FF47A704843A0F57A7003F06CFE0199FDF7EDFD03F0DDF90146DB
:20640C00054802F081F90649002008600EBDC0460000FA440000804F7C2E002080DE800258
:20642C008430002000B5ADF1140D00900098806803900098406802901848006803F022FEB8
:20644C000398006804F052FD0398006803F064FF03F022FD0398007AFEF752FA029810304F
:20646C0004F002FF02982C3004F0FAFE0298007818B90298483004F0F3FE0298843004F01D
:20648C00C1F904F039FF01900299002081F89800019804F02DFF05B000BDC04664300020C8
:2064AC0000B5ADF1140D009001208DF8040027E00098FAF725FE8DF8040027E000980290B5
:2064CC0002984079132821D102980830039003980088012809D10F480078022805D10E4880
:2064EC0004F0B8FC03F0E6F810E0052002F034F8ADF810000848BDF8101002F005F905E035
:20650C0000980078A238D9D02E38D1D09DF8040005B000BD76330020582E0020FCB590EA30
:20652C0001064CBF4FF0004600264FEA00224FEA40031B0E12BF42F000420020FCBDFF2B4A
:20654C0024D04FEA01244FEA41052D0E12BF44F000440020FCBDFF2D18D05B19A2FB045484
:20656C00002C5CBF64005B1E803424BF5B1C64087E3BDCBF0020FCBDFF2B07D24FEA1420D4
:20658C0030F4000040EAC3503043FCBDFF27FF0546EA0700FCBD002213460A46194671B5F8
:2065AC0010F0030F0BD0002A82BF00F8011BB2F1010210F0030FF6D1002A08BF71BD11F0C4
:2065CC00FF0141EA0121042A18D341EA0141082A0FD30E46102A08D30C460D46B2F10F0305
:2065EC0012F00F0272C0103BFCD812F0080F18BF42C012F0040F18BF40F8041B12F0020FE3
:20660C0018BF20F8021B12F0010F18BF017071BD00B5ADF11C0D04928DF80D108DF80C0095
:20662C0000208DF814001EE09DF80D00142812DC049911481422FFF735FA08200090FF20A3
:20664C0001900F480C4902900C480E4B00680022FEF70EF80CE018208DF8140008E0022066
:20666C008DF8140004E09DF80C000028DCD0F6E79DF8140007B000BD8C2F002054300020A3
:20668C007D5C00009032002000B5ADF1240D684604F0F3FA01208DF81800124801216A4636
:2066AC0004F032FE104801684FF44070884701F07DF90E4804F066FB0D49012008700B49D2
:2066CC00002003F081FA0B4908600B49FF2008700A49002008700748006808B904F0BCFD69
:2066EC0009B000BD582F002078000010E82F0020F02F0020703000209C3000209A300020DD
:20670C0000B5ADF11C0D8DF80C3002920191ADF80000BDF80000019B1021022201F0A4FD2D
:20672C000490049810BB00200590029805A903F003FC04900498C8B9059840788DF81800C0
:20674C009DF8180060B905999DF80C00C979884206D1059881689DF80C200898FFF7A2F9CD
